:100000000C9461000C947E000C947E000C947E0095
:100010000C947E000C947E000C947E000C947E0068
:100020000C947E000C947E000C947E000C947E0058
:100030000C947E000C947E000C947E000C947E0048
:100040000C94A4000C947E000C947E000C947E0012
:100050000C947E000C947E000C947E000C947E0028
:100060000C947E000C947E00000000002400270009
:100070002A0000000000250028002B0000000000DE
:1000800023002600290004040404040404040202DA
:100090000202020203030303030301020408102007
:1000A0004080010204081020010204081020000012
:1000B0000007000201000003040600000000000029
:1000C000000011241FBECFEFD8E0DEBFCDBF11E08E
:1000D000A0E0B1E0E6E8F4E002C005900D92A230A5
:1000E000B107D9F711E0A2E0B1E001C01D92AB3039
:1000F000B107E1F70E949D000C9441020C940000AE
:100100008091000161E00E94DE0168EE73E080E012
:1001100090E00E9420018091000160E00E94DE01D9
:1001200068EE73E080E090E00E94200108958091E5
:10013000000161E00E948B0108950E9450010E941D
:1001400097000E948000FDCF1F920F920FB60F9272
:1001500011242F933F938F939F93AF93BF938091DD
:10016000060190910701A0910801B0910901309119
:100170000A010196A11DB11D232F2D5F2D3720F0FF
:100180002D570196A11DB11D20930A0180930601F0
:1001900090930701A0930801B09309018091020197
:1001A00090910301A0910401B09105010196A11D58
:1001B000B11D8093020190930301A0930401B093B9
:1001C0000501BF91AF919F918F913F912F910F901A
:1001D0000FBE0F901F9018958FB7F89420910601CD
:1001E0003091070140910801509109018FBFB90179
:1001F000CA0108959FB7F89420910201309103013C
:10020000409104015091050186B5A89B06C08F3F1F
:1002100021F02F5F3F4F4F4F5F4F9FBF542F432F12
:10022000322F2227280F311D411D511D82E0220F40
:10023000331F441F551F8A95D1F7B901CA0108958C
:10024000EF92FF920F931F93CF93DF937B018C016B
:100250000E94FA00EB010EC00E94FA006C1B7D0B9D
:10026000685E7340C8F30894E108F10801091109B8
:10027000C851DC4FE114F1040105110569F7DF9164
:10028000CF911F910F91FF90EF900895019739F052
:10029000880F991F880F991F02970197F1F708950A
:1002A000789484B5826084BD84B5816084BD85B551
:1002B000826085BD85B5816085BDEEE6F0E0808118
:1002C00081608083E1E8F0E0108280818260808339
:1002D000808181608083E0E8F0E0808181608083BC
:1002E000E1EBF0E0808184608083E0EBF0E08081EE
:1002F00081608083EAE7F0E0808184608083808190
:100300008260808380818160808380818068808337
:100310001092C1000895482F50E0CA0186569F4FA1
:10032000FC0124914A575F4FFA0184918823C1F060
:10033000E82FF0E0EE0FFF1FE859FF4FA591B491B1
:10034000662341F49FB7F8948C91209582238C9377
:100350009FBF08959FB7F8948C91822B8C939FBF79
:100360000895833071F0843028F48130A1F0823018
:1003700021F514C08630B1F08730D1F08430E9F433
:1003800004C0809180008F7703C0809180008F7DB2
:1003900080938000089584B58F7702C084B58F7DE7
:1003A00084BD08958091B0008F778093B000089548
:1003B0008091B0008F7D8093B0000895FF920F93DD
:1003C0001F93F62E482F50E0CA0182559F4FFC0123
:1003D0002491CA0186569F4FFC0114914A575F4FE2
:1003E000FA0104910023C9F0222319F0822F0E9400
:1003F000B101E02FF0E0EE0FFF1FEE58FF4FA59187
:10040000B4919FB7F894FF2021F48C91109581232B
:1004100002C08C91812B8C939FBF1F910F91FF90F5
:1004200008950F931F93482F50E0CA0182559F4FA4
:10043000FC012491CA0186569F4FFC0104914A5742
:100440005F4FFA011491112319F420E030E015C038
:10045000222319F0822F0E94B101812F90E0880F92
:10046000991F84589F4FFC01A591B4918C9120E075
:1004700030E0802311F021E030E0C9011F910F919D
:060480000895F894FFCF7F
:020486000D0067
:00000001FF
